{
  "contractName": "MoonNFT",
  "abi": [
    {
      "inputs": [
        {
          "internalType": "string",
          "name": "_name",
          "type": "string"
        },
        {
          "internalType": "string",
          "name": "_symbol",
          "type": "string"
        },
        {
          "internalType": "uint256",
          "name": "_cost",
          "type": "uint256"
        },
        {
          "internalType": "uint256",
          "name": "_maxSupply",
          "type": "uint256"
        },
        {
          "internalType": "string",
          "name": "_initBaseURI",
          "type": "string"
        }
      ],
      "stateMutability": "nonpayable",
      "type": "constructor"
    },
    {
      "anonymous": false,
      "inputs": [
        {
          "indexed": true,
          "internalType": "address",
          "name": "owner",
          "type": "address"
        },
        {
          "indexed": true,
          "internalType": "address",
          "name": "approved",
          "type": "address"
        },
        {
          "indexed": true,
          "internalType": "uint256",
          "name": "tokenId",
          "type": "uint256"
        }
      ],
      "name": "Approval",
      "type": "event"
    },
    {
      "anonymous": false,
      "inputs": [
        {
          "indexed": true,
          "internalType": "address",
          "name": "owner",
          "type": "address"
        },
        {
          "indexed": true,
          "internalType": "address",
          "name": "operator",
          "type": "address"
        },
        {
          "indexed": false,
          "internalType": "bool",
          "name": "approved",
          "type": "bool"
        }
      ],
      "name": "ApprovalForAll",
      "type": "event"
    },
    {
      "anonymous": false,
      "inputs": [
        {
          "indexed": true,
          "internalType": "address",
          "name": "previousOwner",
          "type": "address"
        },
        {
          "indexed": true,
          "internalType": "address",
          "name": "newOwner",
          "type": "address"
        }
      ],
      "name": "OwnershipTransferred",
      "type": "event"
    },
    {
      "anonymous": false,
      "inputs": [
        {
          "indexed": true,
          "internalType": "address",
          "name": "from",
          "type": "address"
        },
        {
          "indexed": true,
          "internalType": "address",
          "name": "to",
          "type": "address"
        },
        {
          "indexed": true,
          "internalType": "uint256",
          "name": "tokenId",
          "type": "uint256"
        }
      ],
      "name": "Transfer",
      "type": "event"
    },
    {
      "inputs": [
        {
          "internalType": "address",
          "name": "to",
          "type": "address"
        },
        {
          "internalType": "uint256",
          "name": "tokenId",
          "type": "uint256"
        }
      ],
      "name": "approve",
      "outputs": [],
      "stateMutability": "nonpayable",
      "type": "function"
    },
    {
      "inputs": [
        {
          "internalType": "address",
          "name": "owner",
          "type": "address"
        }
      ],
      "name": "balanceOf",
      "outputs": [
        {
          "internalType": "uint256",
          "name": "",
          "type": "uint256"
        }
      ],
      "stateMutability": "view",
      "type": "function",
      "constant": true
    },
    {
      "inputs": [],
      "name": "baseExtension",
      "outputs": [
        {
          "internalType": "string",
          "name": "",
          "type": "string"
        }
      ],
      "stateMutability": "view",
      "type": "function",
      "constant": true
    },
    {
      "inputs": [],
      "name": "cost",
      "outputs": [
        {
          "internalType": "uint256",
          "name": "",
          "type": "uint256"
        }
      ],
      "stateMutability": "view",
      "type": "function",
      "constant": true
    },
    {
      "inputs": [
        {
          "internalType": "uint256",
          "name": "tokenId",
          "type": "uint256"
        }
      ],
      "name": "getApproved",
      "outputs": [
        {
          "internalType": "address",
          "name": "",
          "type": "address"
        }
      ],
      "stateMutability": "view",
      "type": "function",
      "constant": true
    },
    {
      "inputs": [
        {
          "internalType": "address",
          "name": "owner",
          "type": "address"
        },
        {
          "internalType": "address",
          "name": "operator",
          "type": "address"
        }
      ],
      "name": "isApprovedForAll",
      "outputs": [
        {
          "internalType": "bool",
          "name": "",
          "type": "bool"
        }
      ],
      "stateMutability": "view",
      "type": "function",
      "constant": true
    },
    {
      "inputs": [],
      "name": "maxMintAmount",
      "outputs": [
        {
          "internalType": "uint256",
          "name": "",
          "type": "uint256"
        }
      ],
      "stateMutability": "view",
      "type": "function",
      "constant": true
    },
    {
      "inputs": [],
      "name": "maxSupply",
      "outputs": [
        {
          "internalType": "uint256",
          "name": "",
          "type": "uint256"
        }
      ],
      "stateMutability": "view",
      "type": "function",
      "constant": true
    },
    {
      "inputs": [],
      "name": "name",
      "outputs": [
        {
          "internalType": "string",
          "name": "",
          "type": "string"
        }
      ],
      "stateMutability": "view",
      "type": "function",
      "constant": true
    },
    {
      "inputs": [],
      "name": "owner",
      "outputs": [
        {
          "internalType": "address",
          "name": "",
          "type": "address"
        }
      ],
      "stateMutability": "view",
      "type": "function",
      "constant": true
    },
    {
      "inputs": [
        {
          "internalType": "uint256",
          "name": "tokenId",
          "type": "uint256"
        }
      ],
      "name": "ownerOf",
      "outputs": [
        {
          "internalType": "address",
          "name": "",
          "type": "address"
        }
      ],
      "stateMutability": "view",
      "type": "function",
      "constant": true
    },
    {
      "inputs": [],
      "name": "renounceOwnership",
      "outputs": [],
      "stateMutability": "nonpayable",
      "type": "function"
    },
    {
      "inputs": [
        {
          "internalType": "address",
          "name": "from",
          "type": "address"
        },
        {
          "internalType": "address",
          "name": "to",
          "type": "address"
        },
        {
          "internalType": "uint256",
          "name": "tokenId",
          "type": "uint256"
        }
      ],
      "name": "safeTransferFrom",
      "outputs": [],
      "stateMutability": "nonpayable",
      "type": "function"
    },
    {
      "inputs": [
        {
          "internalType": "address",
          "name": "from",
          "type": "address"
        },
        {
          "internalType": "address",
          "name": "to",
          "type": "address"
        },
        {
          "internalType": "uint256",
          "name": "tokenId",
          "type": "uint256"
        },
        {
          "internalType": "bytes",
          "name": "_data",
          "type": "bytes"
        }
      ],
      "name": "safeTransferFrom",
      "outputs": [],
      "stateMutability": "nonpayable",
      "type": "function"
    },
    {
      "inputs": [
        {
          "internalType": "address",
          "name": "operator",
          "type": "address"
        },
        {
          "internalType": "bool",
          "name": "approved",
          "type": "bool"
        }
      ],
      "name": "setApprovalForAll",
      "outputs": [],
      "stateMutability": "nonpayable",
      "type": "function"
    },
    {
      "inputs": [
        {
          "internalType": "bytes4",
          "name": "interfaceId",
          "type": "bytes4"
        }
      ],
      "name": "supportsInterface",
      "outputs": [
        {
          "internalType": "bool",
          "name": "",
          "type": "bool"
        }
      ],
      "stateMutability": "view",
      "type": "function",
      "constant": true
    },
    {
      "inputs": [],
      "name": "symbol",
      "outputs": [
        {
          "internalType": "string",
          "name": "",
          "type": "string"
        }
      ],
      "stateMutability": "view",
      "type": "function",
      "constant": true
    },
    {
      "inputs": [
        {
          "internalType": "address",
          "name": "from",
          "type": "address"
        },
        {
          "internalType": "address",
          "name": "to",
          "type": "address"
        },
        {
          "internalType": "uint256",
          "name": "tokenId",
          "type": "uint256"
        }
      ],
      "name": "transferFrom",
      "outputs": [],
      "stateMutability": "nonpayable",
      "type": "function"
    },
    {
      "inputs": [
        {
          "internalType": "address",
          "name": "newOwner",
          "type": "address"
        }
      ],
      "name": "transferOwnership",
      "outputs": [],
      "stateMutability": "nonpayable",
      "type": "function"
    },
    {
      "inputs": [
        {
          "internalType": "string",
          "name": "_newBaseURI",
          "type": "string"
        }
      ],
      "name": "setBaseURI",
      "outputs": [],
      "stateMutability": "nonpayable",
      "type": "function"
    },
    {
      "inputs": [],
      "name": "totalSupply",
      "outputs": [
        {
          "internalType": "uint256",
          "name": "",
          "type": "uint256"
        }
      ],
      "stateMutability": "view",
      "type": "function",
      "constant": true
    },
    {
      "inputs": [
        {
          "internalType": "address",
          "name": "_owner",
          "type": "address"
        }
      ],
      "name": "balance",
      "outputs": [
        {
          "internalType": "uint256",
          "name": "",
          "type": "uint256"
        }
      ],
      "stateMutability": "view",
      "type": "function",
      "constant": true
    },
    {
      "inputs": [
        {
          "internalType": "uint256",
          "name": "_newmaxMintAmount",
          "type": "uint256"
        }
      ],
      "name": "setmaxMintAmount",
      "outputs": [],
      "stateMutability": "nonpayable",
      "type": "function"
    },
    {
      "inputs": [
        {
          "internalType": "string",
          "name": "_newBaseExtension",
          "type": "string"
        }
      ],
      "name": "setBaseExtension",
      "outputs": [],
      "stateMutability": "nonpayable",
      "type": "function"
    },
    {
      "inputs": [
        {
          "internalType": "uint256",
          "name": "_mintAmount",
          "type": "uint256"
        }
      ],
      "name": "mint",
      "outputs": [],
      "stateMutability": "payable",
      "type": "function",
      "payable": true
    },
    {
      "inputs": [
        {
          "internalType": "uint256",
          "name": "tokenId",
          "type": "uint256"
        }
      ],
      "name": "tokenURI",
      "outputs": [
        {
          "internalType": "string",
          "name": "",
          "type": "string"
        }
      ],
      "stateMutability": "view",
      "type": "function",
      "constant": true
    }
  ],
  "bytecode": "0x60806040526040518060400160405280600581526020017f2e6a736f6e0000000000000000000000000000000000000000000000000000008152506008908051906020019062000051929190620002ad565b506001600c553480156200006457600080fd5b5060405162003cb138038062003cb183398181016040528101906200008a919062000535565b84848160009080519060200190620000a4929190620002ad565b508060019080519060200190620000bd929190620002ad565b505050620000e0620000d46200010a60201b60201c565b6200011260201b60201c565b8260098190555081600a81905550620000ff81620001d860201b60201c565b505050505062000701565b600033905090565b6000600660009054906101000a900473ffffffffffffffffffffffffffffffffffffffff16905081600660006101000a81548173ffffffffffffffffffffffffffffffffffffffff021916908373ffffffffffffffffffffffffffffffffffffffff1602179055508173ffffffffffffffffffffffffffffffffffffffff168173ffffffffffffffffffffffffffffffffffffffff167f8be0079c531659141344cd1fd0a4f28419497f9722a3daafe3b4186f6b6457e060405160405180910390a35050565b620001e86200010a60201b60201c565b73ffffffffffffffffffffffffffffffffffffffff166200020e6200028360201b60201c565b73ffffffffffffffffffffffffffffffffffffffff161462000267576040517f08c379a00000000000000000000000000000000000000000000000000000000081526004016200025e906200067b565b60405180910390fd5b80600790805190602001906200027f929190620002ad565b5050565b6000600660009054906101000a900473ffffffffffffffffffffffffffffffffffffffff16905090565b828054620002bb90620006cc565b90600052602060002090601f016020900481019282620002df57600085556200032b565b82601f10620002fa57805160ff19168380011785556200032b565b828001600101855582156200032b579182015b828111156200032a5782518255916020019190600101906200030d565b5b5090506200033a91906200033e565b5090565b5b80821115620003595760008160009055506001016200033f565b5090565b6000604051905090565b600080fd5b600080fd5b600080fd5b600080fd5b6000601f19601f8301169050919050565b7f4e487b7100000000000000000000000000000000000000000000000000000000600052604160045260246000fd5b620003c6826200037b565b810181811067ffffffffffffffff82111715620003e857620003e76200038c565b5b80604052505050565b6000620003fd6200035d565b90506200040b8282620003bb565b919050565b600067ffffffffffffffff8211156200042e576200042d6200038c565b5b62000439826200037b565b9050602081019050919050565b60005b838110156200046657808201518184015260208101905062000449565b8381111562000476576000848401525b50505050565b6000620004936200048d8462000410565b620003f1565b905082815260208101848484011115620004b257620004b162000376565b5b620004bf84828562000446565b509392505050565b600082601f830112620004df57620004de62000371565b5b8151620004f18482602086016200047c565b91505092915050565b6000819050919050565b6200050f81620004fa565b81146200051b57600080fd5b50565b6000815190506200052f8162000504565b92915050565b600080600080600060a0868803121562000554576200055362000367565b5b600086015167ffffffffffffffff8111156200057557620005746200036c565b5b6200058388828901620004c7565b955050602086015167ffffffffffffffff811115620005a757620005a66200036c565b5b620005b588828901620004c7565b9450506040620005c8888289016200051e565b9350506060620005db888289016200051e565b925050608086015167ffffffffffffffff811115620005ff57620005fe6200036c565b5b6200060d88828901620004c7565b9150509295509295909350565b600082825260208201905092915050565b7f4f776e61626c653a2063616c6c6572206973206e6f7420746865206f776e6572600082015250565b6000620006636020836200061a565b915062000670826200062b565b602082019050919050565b60006020820190508181036000830152620006968162000654565b9050919050565b7f4e487b7100000000000000000000000000000000000000000000000000000000600052602260045260246000fd5b60006002820490506001821680620006e557607f821691505b602082108103620006fb57620006fa6200069d565b5b50919050565b6135a080620007116000396000f3fe6080604052600436106101815760003560e01c80637f00c7a6116100d1578063c66828621161008a578063da3ef23f11610064578063da3ef23f14610561578063e3d670d71461058a578063e985e9c5146105c7578063f2fde38b1461060457610181565b8063c6682862146104ce578063c87b56dd146104f9578063d5abeb011461053657610181565b80637f00c7a6146103e15780638da5cb5b1461040a57806395d89b4114610435578063a0712d6814610460578063a22cb4651461047c578063b88d4fde146104a557610181565b8063239c70ae1161013e57806355f804b31161011857806355f804b3146103275780636352211e1461035057806370a082311461038d578063715018a6146103ca57610181565b8063239c70ae146102aa57806323b872dd146102d557806342842e0e146102fe57610181565b806301ffc9a71461018657806306fdde03146101c3578063081812fc146101ee578063095ea7b31461022b57806313faede61461025457806318160ddd1461027f575b600080fd5b34801561019257600080fd5b506101ad60048036038101906101a891906121d6565b61062d565b6040516101ba919061221e565b60405180910390f35b3480156101cf57600080fd5b506101d861070f565b6040516101e591906122d2565b60405180910390f35b3480156101fa57600080fd5b506102156004803603810190610210919061232a565b6107a1565b6040516102229190612398565b60405180910390f35b34801561023757600080fd5b50610252600480360381019061024d91906123df565b610826565b005b34801561026057600080fd5b5061026961093d565b604051610276919061242e565b60405180910390f35b34801561028b57600080fd5b50610294610943565b6040516102a1919061242e565b60405180910390f35b3480156102b657600080fd5b506102bf610950565b6040516102cc919061242e565b60405180910390f35b3480156102e157600080fd5b506102fc60048036038101906102f79190612449565b610956565b005b34801561030a57600080fd5b5061032560048036038101906103209190612449565b6109b6565b005b34801561033357600080fd5b5061034e600480360381019061034991906125d1565b6109d6565b005b34801561035c57600080fd5b506103776004803603810190610372919061232a565b610a6c565b6040516103849190612398565b60405180910390f35b34801561039957600080fd5b506103b460048036038101906103af919061261a565b610b1d565b6040516103c1919061242e565b60405180910390f35b3480156103d657600080fd5b506103df610bd4565b005b3480156103ed57600080fd5b506104086004803603810190610403919061232a565b610c5c565b005b34801561041657600080fd5b5061041f610ce2565b60405161042c9190612398565b60405180910390f35b34801561044157600080fd5b5061044a610d0c565b60405161045791906122d2565b60405180910390f35b61047a6004803603810190610475919061232a565b610d9e565b005b34801561048857600080fd5b506104a3600480360381019061049e9190612673565b610f46565b005b3480156104b157600080fd5b506104cc60048036038101906104c79190612754565b610f5c565b005b3480156104da57600080fd5b506104e3610fbe565b6040516104f091906122d2565b60405180910390f35b34801561050557600080fd5b50610520600480360381019061051b919061232a565b61104c565b60405161052d91906122d2565b60405180910390f35b34801561054257600080fd5b5061054b6110f6565b604051610558919061242e565b60405180910390f35b34801561056d57600080fd5b50610588600480360381019061058391906125d1565b6110fc565b005b34801561059657600080fd5b506105b160048036038101906105ac919061261a565b611192565b6040516105be919061242e565b60405180910390f35b3480156105d357600080fd5b506105ee60048036038101906105e991906127d7565b6111db565b6040516105fb919061221e565b60405180910390f35b34801561061057600080fd5b5061062b6004803603810190610626919061261a565b61126f565b005b60007f80ac58cd000000000000000000000000000000000000000000000000000000007bffffffffffffffffffffffffffffffffffffffffffffffffffffffff1916827bffffffffffffffffffffffffffffffffffffffffffffffffffffffff191614806106f857507f5b5e139f000000000000000000000000000000000000000000000000000000007bffffffffffffffffffffffffffffffffffffffffffffffffffffffff1916827bffffffffffffffffffffffffffffffffffffffffffffffffffffffff1916145b80610708575061070782611366565b5b9050919050565b60606000805461071e90612846565b80601f016020809104026020016040519081016040528092919081815260200182805461074a90612846565b80156107975780601f1061076c57610100808354040283529160200191610797565b820191906000526020600020905b81548152906001019060200180831161077a57829003601f168201915b5050505050905090565b60006107ac826113d0565b6107eb576040517f08c379a00000000000000000000000000000000000000000000000000000000081526004016107e2906128e9565b60405180910390fd5b6004600083815260200190815260200160002060009054906101000a900473ffffffffffffffffffffffffffffffffffffffff169050919050565b600061083182610a6c565b90508073ffffffffffffffffffffffffffffffffffffffff168373ffffffffffffffffffffffffffffffffffffffff16036108a1576040517f08c379a00000000000000000000000000000000000000000000000000000000081526004016108989061297b565b60405180910390fd5b8073ffffffffffffffffffffffffffffffffffffffff166108c061143c565b73ffffffffffffffffffffffffffffffffffffffff1614806108ef57506108ee816108e961143c565b6111db565b5b61092e576040517f08c379a000000000000000000000000000000000000000000000000000000000815260040161092590612a0d565b60405180910390fd5b6109388383611444565b505050565b60095481565b6000600b80549050905090565b600c5481565b61096761096161143c565b826114fd565b6109a6576040517f08c379a000000000000000000000000000000000000000000000000000000000815260040161099d90612a9f565b60405180910390fd5b6109b18383836115db565b505050565b6109d183838360405180602001604052806000815250610f5c565b505050565b6109de61143c565b73ffffffffffffffffffffffffffffffffffffffff166109fc610ce2565b73ffffffffffffffffffffffffffffffffffffffff1614610a52576040517f08c379a0000000000000000000000000000000000000000000000000000000008152600401610a4990612b0b565b60405180910390fd5b8060079080519060200190610a689291906120c7565b5050565b6000806002600084815260200190815260200160002060009054906101000a900473ffffffffffffffffffffffffffffffffffffffff169050600073ffffffffffffffffffffffffffffffffffffffff168173ffffffffffffffffffffffffffffffffffffffff1603610b14576040517f08c379a0000000000000000000000000000000000000000000000000000000008152600401610b0b90612b9d565b60405180910390fd5b80915050919050565b60008073ffffffffffffffffffffffffffffffffffffffff168273ffffffffffffffffffffffffffffffffffffffff1603610b8d576040517f08c379a0000000000000000000000000000000000000000000000000000000008152600401610b8490612c2f565b60405180910390fd5b600360008373ffffffffffffffffffffffffffffffffffffffff1673ffffffffffffffffffffffffffffffffffffffff168152602001908152602001600020549050919050565b610bdc61143c565b73ffffffffffffffffffffffffffffffffffffffff16610bfa610ce2565b73ffffffffffffffffffffffffffffffffffffffff1614610c50576040517f08c379a0000000000000000000000000000000000000000000000000000000008152600401610c4790612b0b565b60405180910390fd5b610c5a6000611841565b565b610c6461143c565b73ffffffffffffffffffffffffffffffffffffffff16610c82610ce2565b73ffffffffffffffffffffffffffffffffffffffff1614610cd8576040517f08c379a0000000000000000000000000000000000000000000000000000000008152600401610ccf90612b0b565b60405180910390fd5b80600c8190555050565b6000600660009054906101000a900473ffffffffffffffffffffffffffffffffffffffff16905090565b606060018054610d1b90612846565b80601f0160208091040260200160405190810160405280929190818152602001828054610d4790612846565b8015610d945780601f10610d6957610100808354040283529160200191610d94565b820191906000526020600020905b815481529060010190602001808311610d7757829003601f168201915b5050505050905090565b6000610da933610b1d565b14610de9576040517f08c379a0000000000000000000000000000000000000000000000000000000008152600401610de090612c9b565b60405180910390fd5b6000610df3610943565b905060008211610e0257600080fd5b600c54821115610e1157600080fd5b600a548282610e209190612cea565b1115610e2b57600080fd5b610e33610ce2565b73ffffffffffffffffffffffffffffffffffffffff163373ffffffffffffffffffffffffffffffffffffffff1614610e805781600954610e739190612d40565b341015610e7f57600080fd5b5b6000600190505b828111610f4157610ea3338284610e9e9190612cea565b611907565b6001600d60003373ffffffffffffffffffffffffffffffffffffffff1673ffffffffffffffffffffffffffffffffffffffff1681526020019081526020016000206000828254610ef39190612cea565b92505081905550600b8183610f089190612cea565b90806001815401808255809150506001900390600052602060002001600090919091909150558080610f3990612d9a565b915050610e87565b505050565b610f58610f5161143c565b8383611925565b5050565b610f6d610f6761143c565b836114fd565b610fac576040517f08c379a0000000000000000000000000000000000000000000000000000000008152600401610fa390612a9f565b60405180910390fd5b610fb884848484611a91565b50505050565b60088054610fcb90612846565b80601f0160208091040260200160405190810160405280929190818152602001828054610ff790612846565b80156110445780601f1061101957610100808354040283529160200191611044565b820191906000526020600020905b81548152906001019060200180831161102757829003601f168201915b505050505081565b6060611057826113d0565b611096576040517f08c379a000000000000000000000000000000000000000000000000000000000815260040161108d90612e54565b60405180910390fd5b60006110a0611aed565b905060008151116110c057604051806020016040528060008152506110ee565b806110ca84611b7f565b60086040516020016110de93929190612f44565b6040516020818303038152906040525b915050919050565b600a5481565b61110461143c565b73ffffffffffffffffffffffffffffffffffffffff16611122610ce2565b73ffffffffffffffffffffffffffffffffffffffff1614611178576040517f08c379a000000000000000000000000000000000000000000000000000000000815260040161116f90612b0b565b60405180910390fd5b806008908051906020019061118e9291906120c7565b5050565b6000600d60008373ffffffffffffffffffffffffffffffffffffffff1673ffffffffffffffffffffffffffffffffffffffff168152602001908152602001600020549050919050565b6000600560008473ffffffffffffffffffffffffffffffffffffffff1673ffffffffffffffffffffffffffffffffffffffff16815260200190815260200160002060008373ffffffffffffffffffffffffffffffffffffffff1673ffffffffffffffffffffffffffffffffffffffff16815260200190815260200160002060009054906101000a900460ff16905092915050565b61127761143c565b73ffffffffffffffffffffffffffffffffffffffff16611295610ce2565b73ffffffffffffffffffffffffffffffffffffffff16146112eb576040517f08c379a00000000000000000000000000000000000000000000000000000000081526004016112e290612b0b565b60405180910390fd5b600073ffffffffffffffffffffffffffffffffffffffff168173ffffffffffffffffffffffffffffffffffffffff160361135a576040517f08c379a000000000000000000000000000000000000000000000000000000000815260040161135190612fe7565b60405180910390fd5b61136381611841565b50565b60007f01ffc9a7000000000000000000000000000000000000000000000000000000007bffffffffffffffffffffffffffffffffffffffffffffffffffffffff1916827bffffffffffffffffffffffffffffffffffffffffffffffffffffffff1916149050919050565b60008073ffffffffffffffffffffffffffffffffffffffff166002600084815260200190815260200160002060009054906101000a900473ffffffffffffffffffffffffffffffffffffffff1673ffffffffffffffffffffffffffffffffffffffff1614159050919050565b600033905090565b816004600083815260200190815260200160002060006101000a81548173ffffffffffffffffffffffffffffffffffffffff021916908373ffffffffffffffffffffffffffffffffffffffff160217905550808273ffffffffffffffffffffffffffffffffffffffff166114b783610a6c565b73ffffffffffffffffffffffffffffffffffffffff167f8c5be1e5ebec7d5bd14f71427d1e84f3dd0314c0f7b2291e5b200ac8c7c3b92560405160405180910390a45050565b6000611508826113d0565b611547576040517f08c379a000000000000000000000000000000000000000000000000000000000815260040161153e90613079565b60405180910390fd5b600061155283610a6c565b90508073ffffffffffffffffffffffffffffffffffffffff168473ffffffffffffffffffffffffffffffffffffffff161480611594575061159381856111db565b5b806115d257508373ffffffffffffffffffffffffffffffffffffffff166115ba846107a1565b73ffffffffffffffffffffffffffffffffffffffff16145b91505092915050565b8273ffffffffffffffffffffffffffffffffffffffff166115fb82610a6c565b73ffffffffffffffffffffffffffffffffffffffff1614611651576040517f08c379a00000000000000000000000000000000000000000000000000000000081526004016116489061310b565b60405180910390fd5b600073ffffffffffffffffffffffffffffffffffffffff168273ffffffffffffffffffffffffffffffffffffffff16036116c0576040517f08c379a00000000000000000000000000000000000000000000000000000000081526004016116b79061319d565b60405180910390fd5b6116cb838383611cdf565b6116d6600082611444565b6001600360008573ffffffffffffffffffffffffffffffffffffffff1673ffffffffffffffffffffffffffffffffffffffff168152602001908152602001600020600082825461172691906131bd565b925050819055506001600360008473ffffffffffffffffffffffffffffffffffffffff1673ffffffffffffffffffffffffffffffffffffffff168152602001908152602001600020600082825461177d9190612cea565b92505081905550816002600083815260200190815260200160002060006101000a81548173ffffffffffffffffffffffffffffffffffffffff021916908373ffffffffffffffffffffffffffffffffffffffff160217905550808273ffffffffffffffffffffffffffffffffffffffff168473ffffffffffffffffffffffffffffffffffffffff167fddf252ad1be2c89b69c2b068fc378daa952ba7f163c4a11628f55a4df523b3ef60405160405180910390a461183c838383611ce4565b505050565b6000600660009054906101000a900473ffffffffffffffffffffffffffffffffffffffff16905081600660006101000a81548173ffffffffffffffffffffffffffffffffffffffff021916908373ffffffffffffffffffffffffffffffffffffffff1602179055508173ffffffffffffffffffffffffffffffffffffffff168173ffffffffffffffffffffffffffffffffffffffff167f8be0079c531659141344cd1fd0a4f28419497f9722a3daafe3b4186f6b6457e060405160405180910390a35050565b611921828260405180602001604052806000815250611ce9565b5050565b8173ffffffffffffffffffffffffffffffffffffffff168373ffffffffffffffffffffffffffffffffffffffff1603611993576040517f08c379a000000000000000000000000000000000000000000000000000000000815260040161198a9061323d565b60405180910390fd5b80600560008573ffffffffffffffffffffffffffffffffffffffff1673ffffffffffffffffffffffffffffffffffffffff16815260200190815260200160002060008473ffffffffffffffffffffffffffffffffffffffff1673ffffffffffffffffffffffffffffffffffffffff16815260200190815260200160002060006101000a81548160ff0219169083151502179055508173ffffffffffffffffffffffffffffffffffffffff168373ffffffffffffffffffffffffffffffffffffffff167f17307eab39ab6107e8899845ad3d59bd9653f200f220920489ca2b5937696c3183604051611a84919061221e565b60405180910390a3505050565b611a9c8484846115db565b611aa884848484611d44565b611ae7576040517f08c379a0000000000000000000000000000000000000000000000000000000008152600401611ade906132cf565b60405180910390fd5b50505050565b606060078054611afc90612846565b80601f0160208091040260200160405190810160405280929190818152602001828054611b2890612846565b8015611b755780601f10611b4a57610100808354040283529160200191611b75565b820191906000526020600020905b815481529060010190602001808311611b5857829003601f168201915b5050505050905090565b606060008203611bc6576040518060400160405280600181526020017f30000000000000000000000000000000000000000000000000000000000000008152509050611cda565b600082905060005b60008214611bf8578080611be190612d9a565b915050600a82611bf1919061331e565b9150611bce565b60008167ffffffffffffffff811115611c1457611c136124a6565b5b6040519080825280601f01601f191660200182016040528015611c465781602001600182028036833780820191505090505b5090505b60008514611cd357600182611c5f91906131bd565b9150600a85611c6e919061334f565b6030611c7a9190612cea565b60f81b818381518110611c9057611c8f613380565b5b60200101907effffffffffffffffffffffffffffffffffffffffffffffffffffffffffffff1916908160001a905350600a85611ccc919061331e565b9450611c4a565b8093505050505b919050565b505050565b505050565b611cf38383611ecb565b611d006000848484611d44565b611d3f576040517f08c379a0000000000000000000000000000000000000000000000000000000008152600401611d36906132cf565b60405180910390fd5b505050565b6000611d658473ffffffffffffffffffffffffffffffffffffffff166120a4565b15611ebe578373ffffffffffffffffffffffffffffffffffffffff1663150b7a02611d8e61143c565b8786866040518563ffffffff1660e01b8152600401611db09493929190613404565b6020604051808303816000875af1925050508015611dec57506040513d601f19601f82011682018060405250810190611de99190613465565b60015b611e6e573d8060008114611e1c576040519150601f19603f3d011682016040523d82523d6000602084013e611e21565b606091505b506000815103611e66576040517f08c379a0000000000000000000000000000000000000000000000000000000008152600401611e5d906132cf565b60405180910390fd5b805181602001fd5b63150b7a0260e01b7bffffffffffffffffffffffffffffffffffffffffffffffffffffffff1916817bffffffffffffffffffffffffffffffffffffffffffffffffffffffff191614915050611ec3565b600190505b949350505050565b600073ffffffffffffffffffffffffffffffffffffffff168273ffffffffffffffffffffffffffffffffffffffff1603611f3a576040517f08c379a0000000000000000000000000000000000000000000000000000000008152600401611f31906134de565b60405180910390fd5b611f43816113d0565b15611f83576040517f08c379a0000000000000000000000000000000000000000000000000000000008152600401611f7a9061354a565b60405180910390fd5b611f8f60008383611cdf565b6001600360008473ffffffffffffffffffffffffffffffffffffffff1673ffffffffffffffffffffffffffffffffffffffff1681526020019081526020016000206000828254611fdf9190612cea565b92505081905550816002600083815260200190815260200160002060006101000a81548173ffffffffffffffffffffffffffffffffffffffff021916908373ffffffffffffffffffffffffffffffffffffffff160217905550808273ffffffffffffffffffffffffffffffffffffffff16600073ffffffffffffffffffffffffffffffffffffffff167fddf252ad1be2c89b69c2b068fc378daa952ba7f163c4a11628f55a4df523b3ef60405160405180910390a46120a060008383611ce4565b5050565b6000808273ffffffffffffffffffffffffffffffffffffffff163b119050919050565b8280546120d390612846565b90600052602060002090601f0160209004810192826120f5576000855561213c565b82601f1061210e57805160ff191683800117855561213c565b8280016001018555821561213c579182015b8281111561213b578251825591602001919060010190612120565b5b509050612149919061214d565b5090565b5b8082111561216657600081600090555060010161214e565b5090565b6000604051905090565b600080fd5b600080fd5b60007fffffffff0000000000000000000000000000000000000000000000000000000082169050919050565b6121b38161217e565b81146121be57600080fd5b50565b6000813590506121d0816121aa565b92915050565b6000602082840312156121ec576121eb612174565b5b60006121fa848285016121c1565b91505092915050565b60008115159050919050565b61221881612203565b82525050565b6000602082019050612233600083018461220f565b92915050565b600081519050919050565b600082825260208201905092915050565b60005b83811015612273578082015181840152602081019050612258565b83811115612282576000848401525b50505050565b6000601f19601f8301169050919050565b60006122a482612239565b6122ae8185612244565b93506122be818560208601612255565b6122c781612288565b840191505092915050565b600060208201905081810360008301526122ec8184612299565b905092915050565b6000819050919050565b612307816122f4565b811461231257600080fd5b50565b600081359050612324816122fe565b92915050565b6000602082840312156123405761233f612174565b5b600061234e84828501612315565b91505092915050565b600073ffffffffffffffffffffffffffffffffffffffff82169050919050565b600061238282612357565b9050919050565b61239281612377565b82525050565b60006020820190506123ad6000830184612389565b92915050565b6123bc81612377565b81146123c757600080fd5b50565b6000813590506123d9816123b3565b92915050565b600080604083850312156123f6576123f5612174565b5b6000612404858286016123ca565b925050602061241585828601612315565b9150509250929050565b612428816122f4565b82525050565b6000602082019050612443600083018461241f565b92915050565b60008060006060848603121561246257612461612174565b5b6000612470868287016123ca565b9350506020612481868287016123ca565b925050604061249286828701612315565b9150509250925092565b600080fd5b600080fd5b7f4e487b7100000000000000000000000000000000000000000000000000000000600052604160045260246000fd5b6124de82612288565b810181811067ffffffffffffffff821117156124fd576124fc6124a6565b5b80604052505050565b600061251061216a565b905061251c82826124d5565b919050565b600067ffffffffffffffff82111561253c5761253b6124a6565b5b61254582612288565b9050602081019050919050565b82818337600083830152505050565b600061257461256f84612521565b612506565b9050828152602081018484840111156125905761258f6124a1565b5b61259b848285612552565b509392505050565b600082601f8301126125b8576125b761249c565b5b81356125c8848260208601612561565b91505092915050565b6000602082840312156125e7576125e6612174565b5b600082013567ffffffffffffffff81111561260557612604612179565b5b612611848285016125a3565b91505092915050565b6000602082840312156126305761262f612174565b5b600061263e848285016123ca565b91505092915050565b61265081612203565b811461265b57600080fd5b50565b60008135905061266d81612647565b92915050565b6000806040838503121561268a57612689612174565b5b6000612698858286016123ca565b92505060206126a98582860161265e565b9150509250929050565b600067ffffffffffffffff8211156126ce576126cd6124a6565b5b6126d782612288565b9050602081019050919050565b60006126f76126f2846126b3565b612506565b905082815260208101848484011115612713576127126124a1565b5b61271e848285612552565b509392505050565b600082601f83011261273b5761273a61249c565b5b813561274b8482602086016126e4565b91505092915050565b6000806000806080858703121561276e5761276d612174565b5b600061277c878288016123ca565b945050602061278d878288016123ca565b935050604061279e87828801612315565b925050606085013567ffffffffffffffff8111156127bf576127be612179565b5b6127cb87828801612726565b91505092959194509250565b600080604083850312156127ee576127ed612174565b5b60006127fc858286016123ca565b925050602061280d858286016123ca565b9150509250929050565b7f4e487b7100000000000000000000000000000000000000000000000000000000600052602260045260246000fd5b6000600282049050600182168061285e57607f821691505b60208210810361287157612870612817565b5b50919050565b7f4552433732313a20617070726f76656420717565727920666f72206e6f6e657860008201527f697374656e7420746f6b656e0000000000000000000000000000000000000000602082015250565b60006128d3602c83612244565b91506128de82612877565b604082019050919050565b60006020820190508181036000830152612902816128c6565b9050919050565b7f4552433732313a20617070726f76616c20746f2063757272656e74206f776e6560008201527f7200000000000000000000000000000000000000000000000000000000000000602082015250565b6000612965602183612244565b915061297082612909565b604082019050919050565b6000602082019050818103600083015261299481612958565b9050919050565b7f4552433732313a20617070726f76652063616c6c6572206973206e6f74206f7760008201527f6e6572206e6f7220617070726f76656420666f7220616c6c0000000000000000602082015250565b60006129f7603883612244565b9150612a028261299b565b604082019050919050565b60006020820190508181036000830152612a26816129ea565b9050919050565b7f4552433732313a207472616e736665722063616c6c6572206973206e6f74206f60008201527f776e6572206e6f7220617070726f766564000000000000000000000000000000602082015250565b6000612a89603183612244565b9150612a9482612a2d565b604082019050919050565b60006020820190508181036000830152612ab881612a7c565b9050919050565b7f4f776e61626c653a2063616c6c6572206973206e6f7420746865206f776e6572600082015250565b6000612af5602083612244565b9150612b0082612abf565b602082019050919050565b60006020820190508181036000830152612b2481612ae8565b9050919050565b7f4552433732313a206f776e657220717565727920666f72206e6f6e657869737460008201527f656e7420746f6b656e0000000000000000000000000000000000000000000000602082015250565b6000612b87602983612244565b9150612b9282612b2b565b604082019050919050565b60006020820190508181036000830152612bb681612b7a565b9050919050565b7f4552433732313a2062616c616e636520717565727920666f7220746865207a6560008201527f726f206164647265737300000000000000000000000000000000000000000000602082015250565b6000612c19602a83612244565b9150612c2482612bbd565b604082019050919050565b60006020820190508181036000830152612c4881612c0c565b9050919050565b7f4f6e6c792031206d696e7420706572206163636f756e74000000000000000000600082015250565b6000612c85601783612244565b9150612c9082612c4f565b602082019050919050565b60006020820190508181036000830152612cb481612c78565b9050919050565b7f4e487b7100000000000000000000000000000000000000000000000000000000600052601160045260246000fd5b6000612cf5826122f4565b9150612d00836122f4565b9250827fffffffffffffffffffffffffffffffffffffffffffffffffffffffffffffffff03821115612d3557612d34612cbb565b5b828201905092915050565b6000612d4b826122f4565b9150612d56836122f4565b9250817fffffffffffffffffffffffffffffffffffffffffffffffffffffffffffffffff0483118215151615612d8f57612d8e612cbb565b5b828202905092915050565b6000612da5826122f4565b91507fffffffffffffffffffffffffffffffffffffffffffffffffffffffffffffffff8203612dd757612dd6612cbb565b5b600182019050919050565b7f4552433732314d657461646174613a2055524920717565727920666f72206e6f60008201527f6e6578697374656e7420746f6b656e0000000000000000000000000000000000602082015250565b6000612e3e602f83612244565b9150612e4982612de2565b604082019050919050565b60006020820190508181036000830152612e6d81612e31565b9050919050565b600081905092915050565b6000612e8a82612239565b612e948185612e74565b9350612ea4818560208601612255565b80840191505092915050565b60008190508160005260206000209050919050565b60008154612ed281612846565b612edc8186612e74565b94506001821660008114612ef75760018114612f0857612f3b565b60ff19831686528186019350612f3b565b612f1185612eb0565b60005b83811015612f3357815481890152600182019150602081019050612f14565b838801955050505b50505092915050565b6000612f508286612e7f565b9150612f5c8285612e7f565b9150612f688284612ec5565b9150819050949350505050565b7f4f776e61626c653a206e6577206f776e657220697320746865207a65726f206160008201527f6464726573730000000000000000000000000000000000000000000000000000602082015250565b6000612fd1602683612244565b9150612fdc82612f75565b604082019050919050565b6000602082019050818103600083015261300081612fc4565b9050919050565b7f4552433732313a206f70657261746f7220717565727920666f72206e6f6e657860008201527f697374656e7420746f6b656e0000000000000000000000000000000000000000602082015250565b6000613063602c83612244565b915061306e82613007565b604082019050919050565b6000602082019050818103600083015261309281613056565b9050919050565b7f4552433732313a207472616e736665722066726f6d20696e636f72726563742060008201527f6f776e6572000000000000000000000000000000000000000000000000000000602082015250565b60006130f5602583612244565b915061310082613099565b604082019050919050565b60006020820190508181036000830152613124816130e8565b9050919050565b7f4552433732313a207472616e7366657220746f20746865207a65726f2061646460008201527f7265737300000000000000000000000000000000000000000000000000000000602082015250565b6000613187602483612244565b91506131928261312b565b604082019050919050565b600060208201905081810360008301526131b68161317a565b9050919050565b60006131c8826122f4565b91506131d3836122f4565b9250828210156131e6576131e5612cbb565b5b828203905092915050565b7f4552433732313a20617070726f766520746f2063616c6c657200000000000000600082015250565b6000613227601983612244565b9150613232826131f1565b602082019050919050565b600060208201905081810360008301526132568161321a565b9050919050565b7f4552433732313a207472616e7366657220746f206e6f6e20455243373231526560008201527f63656976657220696d706c656d656e7465720000000000000000000000000000602082015250565b60006132b9603283612244565b91506132c48261325d565b604082019050919050565b600060208201905081810360008301526132e8816132ac565b9050919050565b7f4e487b7100000000000000000000000000000000000000000000000000000000600052601260045260246000fd5b6000613329826122f4565b9150613334836122f4565b925082613344576133436132ef565b5b828204905092915050565b600061335a826122f4565b9150613365836122f4565b925082613375576133746132ef565b5b828206905092915050565b7f4e487b7100000000000000000000000000000000000000000000000000000000600052603260045260246000fd5b600081519050919050565b600082825260208201905092915050565b60006133d6826133af565b6133e081856133ba565b93506133f0818560208601612255565b6133f981612288565b840191505092915050565b60006080820190506134196000830187612389565b6134266020830186612389565b613433604083018561241f565b818103606083015261344581846133cb565b905095945050505050565b60008151905061345f816121aa565b92915050565b60006020828403121561347b5761347a612174565b5b600061348984828501613450565b91505092915050565b7f4552433732313a206d696e7420746f20746865207a65726f2061646472657373600082015250565b60006134c8602083612244565b91506134d382613492565b602082019050919050565b600060208201905081810360008301526134f7816134bb565b9050919050565b7f4552433732313a20746f6b656e20616c7265616479206d696e74656400000000600082015250565b6000613534601c83612244565b915061353f826134fe565b602082019050919050565b6000602082019050818103600083015261356381613527565b905091905056fea2646970667358221220d5a6ec14b60264e286eaa51665475689741e36427527c1e3d03b3709520ad01364736f6c634300080e0033",
  "immutableReferences": {},
  "source": "// SPDX-License-Identifier: MIT\npragma solidity ^0.8.14;\n\nimport \"@openzeppelin/contracts/access/Ownable.sol\";\nimport \"@openzeppelin/contracts/token/ERC721/ERC721.sol\";\n\n/// @title MoonNFT a Project to mint and drop in opensea rinkeby\n/// @author filipeVenancio  \n/// @notice this was created for a job interview\n/// @dev still under development\ncontract MoonNFT is ERC721, Ownable {\n    using Strings for uint256;\n\n    string baseURI;\n    string public baseExtension = \".json\";\n    uint256 public cost;\n    uint256 public maxSupply;\n    uint256[] private _allTokens;\n    uint256 public maxMintAmount = 1;\n\n    // Mapping owner address to token count\n    mapping(address => uint256) private balances;\n\n    /// @notice When the contract goes live the constructor will be the 1st to run\n    /// It takes 2 fixed values: Name and Symbol \n    constructor(string memory _name,\n        string memory _symbol,\n        uint256 _cost,\n        uint256 _maxSupply,\n        string memory _initBaseURI\n    ) ERC721(_name, _symbol) {\n        cost = _cost;\n        maxSupply = _maxSupply;\n\n        setBaseURI(_initBaseURI);\n    }    \n\n    /// @notice _baseURI - The URL where the images will be stored\n    function _baseURI() internal view override returns (string memory) {\n        return baseURI;\n    }\n\n    function setBaseURI(string memory _newBaseURI) public onlyOwner {\n        baseURI = _newBaseURI;\n    }\n\n    function totalSupply() public view returns (uint256) {\n        return _allTokens.length;\n    }\n\n    function balance(address _owner) public view returns (uint256) {\n        return balances[_owner];\n    }\n\n    function setmaxMintAmount(uint256 _newmaxMintAmount) public onlyOwner {\n        maxMintAmount = _newmaxMintAmount;\n    }\n\n    function setBaseExtension(string memory _newBaseExtension)\n        public\n        onlyOwner\n    {\n        baseExtension = _newBaseExtension;\n    }\n\n    // public\n    function mint(uint256 _mintAmount) public payable {\n        require(balanceOf(msg.sender) == 0, \"Only 1 mint per account\");\n        uint256 supply = totalSupply();\n        require(_mintAmount > 0);\n        require(_mintAmount <= maxMintAmount);\n        require(supply + _mintAmount <= maxSupply);\n\n        if (msg.sender != owner()) {\n            require(msg.value >= cost * _mintAmount);\n        }\n\n        for (uint256 i = 1; i <= _mintAmount; i++) {\n            _safeMint(msg.sender, supply + i);\n            balances[msg.sender] += 1;\n            _allTokens.push(supply + i);\n        }\n    }\n\n    function tokenURI(uint256 tokenId)\n        public\n        view\n        virtual\n        override\n        returns (string memory)\n    {\n        require(\n            _exists(tokenId),\n            \"ERC721Metadata: URI query for nonexistent token\"\n        );\n\n        string memory currentBaseURI = _baseURI();\n        return\n            bytes(currentBaseURI).length > 0\n                ? string(\n                    abi.encodePacked(\n                        currentBaseURI,\n                        tokenId.toString(),\n                        baseExtension\n                    )\n                )\n                : \"\";\n    }\n}\n",
  "sourcePath": "/home/bitnick/Documents/Projects/moonnft/src/contracts/MoonNFT.sol",
  "compiler": {
    "name": "solc",
    "version": "0.8.14+commit.80d49f37.Emscripten.clang"
  },
  "schemaVersion": "3.4.7",
  "updatedAt": "2022-05-26T11:50:25.043Z",
  "networkType": "ethereum",
  "devdoc": {
    "author": "filipeVenancio  ",
    "details": "still under development",
    "kind": "dev",
    "methods": {
      "approve(address,uint256)": {
        "details": "See {IERC721-approve}."
      },
      "balanceOf(address)": {
        "details": "See {IERC721-balanceOf}."
      },
      "getApproved(uint256)": {
        "details": "See {IERC721-getApproved}."
      },
      "isApprovedForAll(address,address)": {
        "details": "See {IERC721-isApprovedForAll}."
      },
      "name()": {
        "details": "See {IERC721Metadata-name}."
      },
      "owner()": {
        "details": "Returns the address of the current owner."
      },
      "ownerOf(uint256)": {
        "details": "See {IERC721-ownerOf}."
      },
      "renounceOwnership()": {
        "details": "Leaves the contract without owner. It will not be possible to call `onlyOwner` functions anymore. Can only be called by the current owner. NOTE: Renouncing ownership will leave the contract without an owner, thereby removing any functionality that is only available to the owner."
      },
      "safeTransferFrom(address,address,uint256)": {
        "details": "See {IERC721-safeTransferFrom}."
      },
      "safeTransferFrom(address,address,uint256,bytes)": {
        "details": "See {IERC721-safeTransferFrom}."
      },
      "setApprovalForAll(address,bool)": {
        "details": "See {IERC721-setApprovalForAll}."
      },
      "supportsInterface(bytes4)": {
        "details": "See {IERC165-supportsInterface}."
      },
      "symbol()": {
        "details": "See {IERC721Metadata-symbol}."
      },
      "tokenURI(uint256)": {
        "details": "See {IERC721Metadata-tokenURI}."
      },
      "transferFrom(address,address,uint256)": {
        "details": "See {IERC721-transferFrom}."
      },
      "transferOwnership(address)": {
        "details": "Transfers ownership of the contract to a new account (`newOwner`). Can only be called by the current owner."
      }
    },
    "title": "MoonNFT a Project to mint and drop in opensea rinkeby",
    "version": 1
  },
  "userdoc": {
    "kind": "user",
    "methods": {
      "constructor": {
        "notice": "When the contract goes live the constructor will be the 1st to run It takes 2 fixed values: Name and Symbol "
      }
    },
    "notice": "this was created for a job interview",
    "version": 1
  }
}